:020000041000EA
:1000000000B5324B212058609868022188439860DF
:10001000D860186158612E4B002199600221596106
:100020000121F02299502B49196001219960352056
:1000300000F044F80222904214D00621196600F024
:1000400034F8196E01211966002018661A6600F04E
:100050002CF8196E196E196E052000F02FF8012189
:100060000842F9D1002199601B49196000215960AB
:100070001A491B48016001219960EB211966A021F2
:10008000196600F012F800219960164914480160C1
:100090000121996001BC002800D000471248134993
:1000A000086003C880F30888084703B5996A0420EC
:1000B0000142FBD001200142F8D103BD02B5186610
:1000C0001866FFF7F2FF186E186E02BD00000240BE
:1000D000000000180000070000035F00212200005C
:1000E000F4000018222000A00001001008ED00E03C
:1000F00000000000000000000000000074B24E7A12
:1001000000200420F7010010C3010010C5010010F9
:10011000C1010010C1010010C1010010C101001097
:10012000C1010010C1010010C1010010C701001081
:10013000C1010010C1010010C9010010CB01001065
:10014000CD010010CD010010CD010010CD01001037
:10015000CD010010CD010010CD010010CD01001027
:10016000CD010010CD010010CD010010CD01001017
:10017000CD010010CD010010CD010010CD01001007
:10018000CD010010CD010010CD010010CD010010F7
:10019000CD010010CD010010CD010010CD010010E7
:1001A000CD010010CD010010CD010010CD010010D7
:1001B000CD010010CD010010CD010010CD010010C7
:1001C00000BE00BE00BE00BE00BE00BE00F04BF888
:1001D000103800BEF2EB887158250010742500100D
:1001E0003402001090A31AE700202149086006C8D5
:1001F00081F3088810471F48006800282FD10DA4FC
:100200000ECC002902D000F012F8F9E71A491B4A77
:10021000002000E001C19142FCD1194988471949E9
:1002200088471949884700BEFDE701C901C29A42C3
:10023000FBD3704774250010C0000020800300200D
:10024000342800100000042000000420342800108E
:1002500000100420001004200000000070470B482C
:1002600001F090FB0047EFF30580C0B2704700003B
:1002700008ED00E0000000D08003002054080020BA
:100280005D140010DD0300104D15001057560000DE
:1002900006005250ABB360530825001006005250C0
:1002A000861C030218250010060052505422A29DFD
:1002B0002425001005005250DE65F4683428001033
:1002C000F8B5C0460448054B10B5834203D0044B33
:1002D000002B00D0984710BD800300208003002031
:1002E0000000000006480749091A8B10C90FC918F9
:1002F00010B5491003D0044B002B00D0984710BD17
:1003000080030020800300200000000010B5074C8F
:100310002378002B09D1FFF7D5FF054B002B02D026
:10032000044800E000BF0123237010BD80040020BA
:100330000000000090240010054B10B5002B03D0E6
:100340000449054800E000BFFFF7CCFF10BDC046E0
:1003500000000000840400209024001010B5040068
:10036000080021606260A360042100F047F923685F
:1003700020001A07520F93009B18084A9B009446CE
:10038000002263441A609A60DA60054A1A6180228A
:10039000D2005A6001221A6010BDC046000005401C
:1003A0009698000010B50B490B4801F077FF032128
:1003B000182000F023F90321172000F01FF9002274
:1003C0000121182000F032F900220121172000F04D
:1003D0002DF910BDA086010050030020F0B5DE46C7
:1003E00057464E464546E0B59FB0FFF7DBFF00237A
:1003F00002AA93830AAA9146938008930A93764BA4
:1004000076491800984601F049FF0321152000F0B5
:10041000F5F80321142000F0F1F800220121152045
:1004200000F004F900220121142000F0FFF84A46F0
:10043000002108AB0CA8FFF791FF02AA94461923EC
:1004400021226344624401210FA8FFF787FF02AA1B
:1004500094461A23222263446244022112A8FFF721
:100460007DFF02AA94461B23232263446244032196
:1004700015A8FFF773FF042109AB0BAA18A8FFF713
:100480006DFF02AA94461D23252263446244052180
:100490001BA8FFF763FF02AB9C46514B17249A46FB
:1004A000012300279B466444002508AE21E08B42CF
:1004B00036D0012322000290039100937021404620
:1004C00001F016FF00F0DAFCFA2200239200121865
:1004D0004B41994220D81DD00292039370213200E3
:1004E000012340460097013501F026FF0136062D15
:1004F0001CD05B46AB40237000F0C0FC02000B0038
:1005000064200021801859418B42D0D901204042FB
:10051000C117CEE79042DFD901225242D317DBE761
:100520008242C6D901204042C117C2E70E9B18780B
:100530000593C62827DC0C9EC62133075B0F9D0060
:10054000ED18284BAD009C46274B6544584301F0FD
:1005500047FA9130FF3001F0C5FA0022234B01F039
:100560009AFA234B002201F0B0FA01F0D3FA5B466D
:1005700080B233422CD11F4B2A6850408022520156
:10058000034015432B6006250D970FE0994219D0C3
:10059000013D02920393FF2101234A4650460097F2
:1005A000EDB201F0A5FE002D00D17DE700F066FC64
:1005B0006422002312184B419942E7D9012252428A
:1005C000D317E5E79042E3D901225242D317DFE780
:1005D000094B0004D0E7C04658030020A086010064
:1005E000500300200C000540980800000088D3400C
:1005F000C012E340FFFF00000000FFFF094A830034
:1006000094464022634410B51C68C0006240C02478
:1006100014408022520113431C60034B9C466044EB
:10062000416010BD04C00140004001400A4B800001
:100630009C4604236044002901D00C230821002A91
:1006400000D10B00026853400C221A4080235B014A
:10065000184302607047C04604C00140F8B5EFF38C
:10066000108772B60E4E3368002BFCD0BFF35F8F3D
:10067000CB08C4180725A446C45C01230D40AB4039
:1006800018002040234208D1624623431370BFF371
:100690005F8F306087F31088F8BD100000F058FFBE
:1006A0002C0100D0024B18688007C00F7047C0466D
:1006B00000C006400021044B044ABFF35F8F02C311
:1006C0009342FAD17047C046000100D0800100D0AB
:1006D000044A1078431CDBB2172B00D91023137087
:1006E0007047C046B802002001238340002904D08F
:1006F000034A1360034A13607047034A1360FBE721
:1007000080E200E000E100E080E100E0024B103018
:100710009B688000C058704700ED00E070B50D0088
:10072000EFF3108672B60F4A1368002BFCD0BFF3AC
:100730005F8F0D4B10309B6884001B590B4A93420E
:1007400003D09D4201D000F01BFF074B9B681D5159
:10075000BFF35F8FBFF35F8F0022024B1A6086F3F7
:10076000108870BD240100D000ED00E0CD01001024
:10077000F0B5DE4657464E464546E0B50C0083B020
:10078000EFF3108A72B65A4A1368002BFCD0BFF3FD
:100790005F8F1022914681444A46564B96009B68D3
:1007A0009D59554B98469D4205D0A54216D0534FB2
:1007B000EB1B2F2B14D94F4B9B689D51BFF35F8FC1
:1007C000BFF35F8F00224A4B1A608AF3108803B090
:1007D0003CBC90469946A246AB46F0BD1D00EAE7F8
:1007E000012383409B465A46454B1B681A400092A2
:1007F0005A46444B1A60BFF35F8FFFF734FD0190F8
:10080000002803D0814501D000F0BAFE01232A0060
:100810009A4393689C4208D160E04B005B189B00B0
:10082000FB189968A14211D01A00062151560029DF
:10083000F3DA009B002B05D05A46334B1A60304B3D
:100840001A60B8E75A462F4B1A60B4E7062159568A
:10085000002922DB4A00501880003C188046A0681E
:100860009860E079D871062020569871A0797F2889
:1008700024D8A488F81A6405241544440019E024F7
:100880000005400D24022043988052181F4B92000F
:10089000BF181A781970BA71CBE70199002910D1E5
:1008A000FF3191711A49918018490A789A71194A51
:1008B000DB1B5B415A43120D0A70BAE7BD200002F0
:1008C000E2E7154A1549D21A083A5002400D014391
:1008D0009980134952080A43DA80AAE70621515643
:1008E00013000029B6DA019A002AEAD14546DBE76F
:1008F000240100D000ED00E0CD010010BC0200207A
:1009000000E100E080E100E080E200E0520600202B
:1009100000BDFFFFAAAA0000F602002000F0FFFFC2
:1009200000F8FFFFF8B5012504000543FFF79BFC25
:100930000300EFF3108672B621490A68002AFCD042
:10094000BFF35F8F1F4A20001F49801A4041414377
:10095000090D1E489B00876849B2FF58AF421CD062
:100960000623D3568B421CD01223D3568B4222D05F
:100970001E23D3568B4220D02A23D35603208B42EA
:1009800010D0134B1A781970A271BFF35F8F002239
:100990000B4B1A6086F31088F8BD82680D48D05062
:1009A000EFE7002043001B189B00D218FF23937130
:1009B000094B9380E5E70120F4E70220F2E7C04607
:1009C000240100D0BC020020AAAA000000ED00E033
:1009D00052060020CD01001000BDFFFF054B064A66
:1009E0001360064A136053609360D36013615361D0
:1009F000936170478080808000E400E004E400E0C0
:100A0000024B9C46614489000160704740000034FD
:100A100083680B4810B584466144624409011201A1
:100A20009A18591854684B6801209C4201D802D08A
:100A30000020C0B210BD12680B689A42F9D8F7E7DF
:100A4000FFFFFF0FF8B5574645464E46DE46E0B578
:100A500099460CAB19780DAB1B78050090469A4669
:100A60000768002912D1BE7B002E45D074003B6878
:100A7000A419033C1B195A783100BA73002A00D11B
:100A8000FA7300229A705A701A7003E00E004C003C
:100A90006418033C2C4B00229C46AB6861449C4686
:100AA0004346090161440B604B464B600A9B8B60D7
:100AB0000B9BCB603B681B199A705A701A707B7B3A
:100AC0009B46002B2CD032005946B8687B6898476B
:100AD0003A68002817D05B4658465B005B441419FF
:100AE000033BA070D118D35C002B00D063705B4631
:100AF0000E707B73B34514D030003CBC90469946D1
:100B0000A246AB46F8BD5B465B005B44033BD31893
:100B10009E701119125D002A00D05A705B460B704E
:100B20007E7342464B46287D00F0F8F9041E06D03D
:100B30005346002B03D13100286800F035FC0E9B92
:100B4000002BD9D01C70D7E7FFFFFF0FF0B5DE46B2
:100B50004E46574645460023E0B58DB00A936B4B91
:100B60008200D3580B90994600239B464B4607932F
:100B700000F084F9079C06000F006268EFF310850F
:100B800072B61368002BFCD022000794BFF35F8F6E
:100B90002468637B9946002B67D092685C4B904633
:100BA0004B441B01984443461A685B6810001900C7
:100BB000801BB94100295FDD0B9800F0AFF90023DD
:100BC0000026984600279A46079C6368BFF35F8F0C
:100BD0005A461A6085F310885346002B08D1002826
:100BE000C6D10DB03CBC90469946A246AB46F0BD7E
:100BF0000A9B414618024B461843D047089009917A
:100C00006268EFF3108572B61368002BFCD007946E
:100C1000BFF35F8F0899099A002A48DB114303D07C
:100C2000079B1B69002B5DD1079B1B68DA7B002AA1
:100C300007D051008A1819688C4649466244033A25
:100C400051704A46DA734B46079A013BD168CA5C39
:100C50000132CA545B46079A13615368BFF35F8F32
:100C60005A461A6085F3108882E7002300269846CA
:100C700000279A460020A7E7002901D100289BD130
:100C80000021200000F0F2FA43461E685F689B686E
:100C9000079A9A464346DB689846D3684B44013B23
:100CA0001B780A931B020343136100208CE723691E
:100CB000002BB9D033003C005B1A94411A0023008A
:100CC000A74219D89F421BD0594604910121039194
:100CD0004946029141460191514607980091FFF71C
:100CE000B1FEB7E700F0CAF8089A099B06000F00AA
:100CF00092197B419942E5D901225242D317E3E789
:100D00009642E1D901225242D317DDE720060020A6
:100D1000FFFFFF0F10B5124C6368002B04D00A21AF
:100D20001048FFF76DFE10BD23000F4A1021206808
:100D300000F0BAF9032000F095F8032000F060F904
:100D400003200A4900F0A4F8FFF7C2FC084B9C46B8
:100D5000032360442375074B80006060DC60DEE79E
:100D6000040300203C060020110A00104D0B001067
:100D70004000003420060020084A4368516A10B53C
:100D8000046800208B4203D8926A0130A24200D34B
:100D900010BD5B1A581E8341D8B2F9E700400540E8
:100DA0000260436000487047790D0010F0B5D646E8
:100DB0004F464646C0B5EFF305833F221340180067
:100DC0001038EFF3108C72B6204D2A68002AFCD040
:100DD000BFF35F8F0122110081401D4C8846616383
:100DE0001C4917000E788A463100C1400F400A4264
:100DF00015D019498200646A51588C4219D3174B97
:100E0000D25843469E4353461E70BFF35F8F002364
:100E10002B608CF31088002A06D0904704E0BFF3C3
:100E20005F8F2F608CF310881CBC90469946A246B9
:100E3000F0BD0B4A9B00904643441A681A60BFF30A
:100E40005F8F00232B608CF31088EDE7280100D022
:100E50000040054053060020400600209C0400206E
:100E6000D03F054010B50100024A0348FFF7F6FBEA
:100E700010BDC0469024001051060020034B596A53
:100E80000A00986A596A8A42FAD1704700400540C0
:100E900070B504000D00EFF3108672B61A4A13689D
:100EA000002BFCD0BFF35F8F002D1BD02000FFF77D
:100EB0002DFC164981420AD02000FFF72FFC0121AA
:100EC0002000FFF711FC0123A340114A1360114BCE
:100ED000A400E550BFF35F8F00220B4B1A6086F32E
:100EE000108870BD0B4BA200D5500122A2400A49C8
:100EF00020000B7893430B700449FFF739FC002165
:100F00002000FFF7F1FBE5E7280100D0AD0D001050
:100F1000386005409C04002053060020F0B54F4681
:100F2000D6464646C0B50700304C616A0D00A66A39
:100F3000616AA942FAD18B4208D805D001201CBCB5
:100F400090469946A246F0BDB242F7D9EFF3108918
:100F500072B6274801680029FCD0BFF35F8F0125D6
:100F60002449BD408C460978204C0E002E4388460B
:100F7000F1B28A46614650460870391D1E48890004
:100F800065630A51B9000B50216A0020294219D02B
:100F9000616A0800A66A616A8142FAD18B4219D857
:100FA00001D1B24216D8C2451DD0104B1F201D6280
:100FB0005D6301230740BB40104A1E38136063463F
:100FC00042461A70BFF35F8F0022094B1A6089F303
:100FD0001088B4E70020BFF35F8F0022044B1A6033
:100FE00089F31088ABE70120ECE7C04600400540DC
:100FF000280100D0530600204006002080E200E0D7
:1010000010B5EFF3108472B60A490B68002BFCD0C0
:10101000BFF35F8F01238340074A084813620278B9
:101020009A430270BFF35F8F00230B6084F3108834
:1010300010BDC046280100D00040054053060020E6
:1010400070B505000E001400002924D0002A24D019
:1010500080686B689847296800280ED063001B19C8
:101060007200033B9219CB18033A9E7088188A5C71
:10107000002A14D1047030000EE073009B19620046
:10108000033B1219CB18033A9C7088188A5C002A1B
:1010900000D05A700670200070BD0800FCE75A703E
:1010A00004703000F8E7C04630B583600023CCB24E
:1010B00043730133047342608373C4730D0000688B
:1010C000012C06D9421C0133DBB2137003329C425F
:1010D000F9D1FF2129404B0059180023401803384B
:1010E000437030BDF8B5CE46474606000C0080B5CB
:1010F000002907D04D0003686D18033D5A19577831
:10110000002F04D120000CBC90469946F8BD790010
:10111000C9190339884643445978894600215970D2
:10112000517073683A00210080689847336800283E
:1011300014D042469A18947059195B5D002B00D068
:1011400053700F70270049463000FFF7CBFF39007E
:1011500002003000FFF774FF0400D3E74246414627
:101160005D19AF709A185B5C002B00D06B70147027
:10117000E9E7C046F0B557464546DE464E46E0B57F
:101180000D006B0001685B19DF1E0400C85D83B0B1
:101190000192CA1900284CD043001B18033BCB18FE
:1011A0005E78B446002E16D1019E002E3ED0E67B1E
:1011B000002E04D073009B19CB18033B5D70E573C0
:1011C00000282FD10023537003B03CBC90469946B1
:1011D000A246AB46F0BD72006244033A89184A78D1
:1011E000904600224A7091465A7001003200200059
:1011F000FFF726FF43468246002B07D05B0021689D
:101200004344033BCB185A78002A16D14246514634
:101210002000FFF715FF2168019BCA19002BC6D1DA
:101220000028CFD043001B18033BCB180021997036
:10123000C8E7019B002BBAD1C4E7500080180338DF
:10124000091848788346484648705870414620003F
:10125000FFF7F6FE594680462000FFF743FF414660
:1012600002002000FFF7ECFE8046CFE7F0B54E46C7
:101270004546DE465746E0B5467B040075000068EB
:10128000AD19033D83B00191415D421900294ED053
:101290004B005B18033BC3185F78BC46002F18D186
:1012A000019D002D40D0E57B002D04D06B005B1923
:1012B000C318033B5E70E673002931D10023300070
:1012C0005370617303B03CBC90469946A246AB464E
:1012D000F0BD7A006244033A8018427893460022B7
:1012E000427091465A7020003A00FFF7A9FE5B4613
:1012F0008046002B07D05B0021685B44033BCB1882
:101300005A78002A17D15A4641462000FFF798FE26
:10131000019B010020684219002BC4D10029CDD0C7
:101320004B005B18033BC31800209870C6E7019B75
:10133000002BB8D1C2E7500080180338091848784C
:10134000824648464870587059462000FFF778FE9C
:1013500053468346002B07D05B0021685344033B70
:10136000CB185A78002A06D1594652462000FFF77A
:1013700067FE8346C7E750008018033809184846BF
:101380004F784870587051462000FFF759FE3900D9
:1013900081462000FFF7A6FE494602002000FFF725
:1013A0004FFE8246E0E7C04670B5040000292CD00D
:1013B000437B8B422ED0056848004018033828181C
:1013C0008278002A21D053009B18033BEA5CEE1878
:1013D0008A4202D11BE0002A08D053009B18033B2D
:1013E000EB185A788A42F6D142785A7000230122CB
:1013F000837043702000FFF7BDFE617B0200200078
:10140000FFF71EFE6073012000E0002070BD4378EE
:101410003370EBE701221900FFF7ACFE6073012087
:10142000F4E7C04610B50400FFF752F901002000B0
:10143000FFF7E6FAFF232371BFF35F8F10BDC046AD
:1014400010B50400FFF744F901002000FFF7D8FAB7
:10145000FF23A380BFF35F8F10BDC0462C4B2D4AE6
:1014600070B51A602C4A2D4B2D491A6010008B68FC
:101470009843FBD12B4C2C4B9C4209D2013B1D1BAA
:10148000AD080135AD002D1908CC9847AC42FBD111
:1014900000F07CF8254A214B1A60214A9368DB0151
:1014A0008033FBD14022224B224C234D9A675A674E
:1014B0001A67DA66AC4208D223682000002B21D0DC
:1014C0000834FFF7BDFFAC42F6D31C4C1C4DA1689D
:1014D000C022280000F0E4FBA560FFF7EBF8FFF75F
:1014E0007DFAFFF717FC174C174B9C4209D2013BC2
:1014F0001D1BAD080135AD002D1908CC9847A5423C
:10150000FBD170BD0834FFF78DFFAC42D4D3DCE7CC
:1015100000E00040BFCDFBFEFE7F3C0000F000403D
:1015200000C000406803002078030020FFFFFF0197
:1015300000F00140600300206803002000ED00E09F
:1015400000000020780300208003002000BEFDE79B
:101550000FB400B5084883B000F0CCFC049B002B0E
:1015600007D005A91800019100F0ECF9034800F03C
:10157000C1FC00BEFDE7C046B4240010C424001026
:1015800010B50148FFF7E4FFC824001030B50C2067
:1015900083B000F0B3F9FFF785F800280ED0944B24
:1015A000944A1A605A609A60DA601A615A619A61C4
:1015B000DA611A62904A5A6203B030BD8F4CA0675C
:1015C00000F0A4F901228E4B1A60636C012BFCD150
:1015D00003228C4B1A60894A936B012BFCD1013397
:1015E0000121894A89480093043300F033F9052327
:1015F000874A00930121874800F02CF9864B5A68EE
:10160000FF2A02D8802252005A608022784C7D4BFB
:1016100021691201804D1A60002905D0606900F02F
:1016200007FA01300138FDD1E0217B4B02201A6816
:101630001140802252012A43116019684840032159
:101640000140116004219A681142FCD0802280215F
:1016500092012A4309011160802252005A606F4BA7
:1016600023616F4B5968FF2900D85A6003226C48E8
:10167000634B01211A60020093681942FCD0E025F7
:1016800013681D4080235B0103431D6012684A40BC
:101690000321114019600221614A93681942FCD06C
:1016A000802380219B0103430901196080215D4B48
:1016B0004900516063615C4B5A68FF2A00D8596049
:1016C00080225A4BE1691201574D1A60002905D05A
:1016D000606900F0ADF901300138FDD1E0225249D6
:1016E0000B681A4080235B012B431A608023802201
:1016F0009B012B4312011A6080223E4B52004A602C
:10170000E3614B4B5968FF2900D85A608022494B4E
:10171000216A1201464D1A60002905D0606900F067
:1017200087F901300138FDD1E02241490B681A40A8
:1017300080235B012B431A60802380229B012B4373
:1017400012011A60802380225B004B60294BD20279
:101750002362394B5968914200D25A608022374B3C
:10176000616A1201344D1A60002905D0606900F0E9
:101770005FF901300138FDD1E0222F490B681A4092
:1017800080235B012B431A60802380229B012B4323
:1017900012011A608023DB024B60174B6362284BF7
:1017A0005A68FF2A02D8802252005A608022254BB4
:1017B000A1691201224D1A60002905D0606900F06C
:1017C00037F901300138FDD1E0221D490B681A407C
:1017D00080235B012B431A60802380229B012B43D3
:1017E00012011A6080235B004B600E4BA361E3E69D
:1017F000AC050020006CDC021BB70000008000403C
:101800003CB0004030B00040002F685900800240DA
:10181000008C864700C0024030800040001BB700AB
:101820003C800040405973075480004054B0004051
:101830006080004060B000406C8000406CB00040B0
:101840004880004048B00040014B8000C0587047BD
:10185000AC050020F8B504000C2017001D000E0098
:1018600000F0E6F84101091A8B01591AC90009185C
:101870008901380000F0DCF8069A2B0412031343A8
:101880002268002A21DB194AA21851424A418021CC
:1018900049018C4652420A40154962440A60154982
:1018A0000A60154917008D68AF43FBD1C021221D86
:1018B0008901114321222660A0600A602268002A63
:1018C000FCDAE36008230B60F8BD3F2221680A4080
:1018D000B242D8D1A2681205120D8242D3D1EE21B4
:1018E000E268C9020A409A42CDD1EDE70040FDBF4F
:1018F00000E0004000F0004000C000408023024AA9
:101900009B000343D362704700800540AA23064A28
:101910001B0113602F230549D360054B19605368E1
:10192000002BFCDA7047C0460040024000B0FA00CD
:101930000060024010B5002800D110BD00F088FA08
:10194000FBE7C04610B5094A0300146884B0002CB8
:1019500008D0012200910648524203A9A047012065
:1019600004B010BD00F0C6FA0020F9E71C06002004
:101970003519001001480421014B1847300300209D
:10198000A5190010142310B50100188804331B8812
:10199000984710BD162310B50100188802331B8824
:1019A000984710BDF0B5C64600B5002916D01423DF
:1019B00004000125984618278900461843462168E7
:1019C00018883B88984701C4431E9841404205400F
:1019D000A642F3D1280004BC9046F0BD0125F9E7EA
:1019E000124A936F9B0815D29066D166002905D0E4
:1019F000FFE7FFE7FFE7516F106F704704B58021E5
:101A00000906C2175140002800D0C84300F028FD45
:101A1000002104BDF0B5146E556E576F166FFFF7B9
:101A2000E3FF1466556657671667F0BD000000D0E7
:101A3000114A936F9B0813D210665166002905D096
:101A4000FFE7FFE7FFE7516F106F704704B500280D
:101A500001D00020C04300F003FD002104BDC046BA
:101A6000F0B5146E556E576F166FFFF7E5FF1466ED
:101A7000556657671667F0BD000000D048404140EA
:101A8000484018B4134B5B68019308BD18B4114B60
:101A90001B68019308BD94460F4A926F920805D2C5
:101AA000624618B40B4BDB68019308BD0A4AF0B5D7
:101AB000146E556E576F166F6246FFF7F2FF064AB7
:101AC0001466556657671667F0BD18B4014B9B68DE
:101AD000019308BD54060020000000D0002100281A
:101AE00005D17047C1174840401AFAD0C90713B54D
:101AF000064B1B6898470CBC441CA2401005120BF7
:101B00000349091B09051943114310BD380600207C
:101B10001F04000018B4024B5B6A019308BD00006B
:101B20005406002010B50148FFF712FDD424001020
:101B3000132370B51D78012D15D010DD2648FFF751
:101B400029FF264C01008022200000F0A9F8022D78
:101B500006D02348FFF716FF224B186070BD1F4CBC
:101B6000214BA364F5E72E001C4C204AA3085B42DE
:101B70001E401D422DD0330022602020B10061188C
:101B8000801B0A604A608A60CA600A614A618A6191
:101B9000CA610A624A628A62CA620A634A638A63E3
:101BA000CA630A644A648A64CA640A654A658A65C3
:101BB000CA650A664A668A66CA660A674A6740084C
:101BC000102802D18A67CA67CAE71E339B00E25019
:101BD000C6E70023D1E7C046534400005406002066
:101BE0004C33000038060020F11B0010251B0010AC
:101BF00007B5604601880A0A0230DF2AFAD1C9B265
:101C0000820804D3028840880004104300E0006882
:101C1000014A5050039007BD5406002010B50148FA
:101C2000FFF796FCEC240010132310B510481C7825
:101C3000FFF7B0FE0100012C0AD003DD80220D4821
:101C400000F02EF80C48FFF79DFE0C4B186010BDFD
:101C5000084C5422200000F023F82300084A803367
:101C60002168002900D122600434A342F8D1E9E7B9
:101C700053460000540700204C3300003806002073
:101C80001D1C001001480421014B1847400300208F
:101C9000A5190010014B1B681847000040030020E5
:101CA000014B5B681847000040030020030010B59B
:101CB00008001B681100984710BDC046F8B547469C
:101CC000CE4680B5437C07000D001600002B37D0B0
:101CD00000240020002A1EDD4B1E98461B4B99460F
:101CE000002C2BD043461B5D0D3B5A425341DBB2C7
:101CF0002A5D0A2A13D00134A642F1DC864203DDB4
:101D0000311A3B6828189847AD19013D2B780D3BD7
:101D10005A4253413B740CBC90469946F8BD002B87
:101D2000E9D1A04203DA211A3B68281898474846AF
:101D300002213B68013498472000DDE73B7CD7E770
:101D40000368110028009847E5E7C04654250010B5
:101D5000F0B557464E464546DE461C00D023E0B55A
:101D60001B061F68354B83B006000D00180001A943
:101D700091469A4600F07CFB8046002808D1019BE2
:101D80007FB29F4204D0504600F07AFB0123984670
:101D90006B1C03D1300000F01BFB0500002C2AD186
:101DA000274F284B1C68002C18D04B46002B24D101
:101DB000254B994602E0E468002C0FD02368002BE5
:101DC000F9D04B461B68002B01D0A342F3D1200071
:101DD0002A003100B847E468002CEFD14346002BBD
:101DE00028D1681E8541E8B203B03CBC90469946B4
:101DF000A246AB46F0BD154FD3E7134B99460A23D5
:101E00009B4602E0E468002CE8D02368002BF9D060
:101E10004B461B68002B01D0A342F3D12A003100AE
:101E20002000B8475A466B4620001A7101A90122CA
:101E3000B847E7E7504600F00BFBD2E7600300200D
:101E4000BD1C00101406002018060020AD1C001058
:101E5000F0B54746CE4680B583B06B46DF1CD02335
:101E600038701B061C68204B060001A91800984614
:101E700000F0FEFA051E22D01C4B1C68002C2AD054
:101E80001B4B994602E0E468002C10D02368002B1D
:101E9000F9D04B461B68002B01D0A342F3D12000A0
:101EA00001223900FFF70AFFE468002CEED1002D73
:101EB00011D1300003B00CBC90469946F0BD019B97
:101EC00064B29C420BD0404600F0DAFA074B012581
:101ED0001C68002CD4D1404600F0BAFAE9E7034B65
:101EE0001C68002CCCD1E4E760030020140600201D
:101EF0001806002070B5040000F06AFA0023010003
:101F0000050001222000FFF723FF084B1C68002C6E
:101F100006D06368002B05D09847E468002CF8D100
:101F2000280070BDE468002CF3D1F9E71406002006
:101F3000F0B5454657464E46DE46E0B5050085B04D
:101F4000019200229A460EAB1878109B0F9E98467D
:101F50002B680390DA6601325960DA665246002A2D
:101F600065DD012252425244934601224240520210
:101F700002920022474691465A6F102AFCD04A46E8
:101F8000002A26D0802200215200CB452AD080246E
:101F90001A61002E2FD0A8463D0037001A595E6DF9
:101FA0002800B847002E45D100283BD143461B6886
:101FB0009A6F002AF2D03E002F00454649461B6921
:101FC000019A535401239C46E144CA4520D02B6812
:101FD000D2E72A79002AD5D0A0228021D200C900D8
:101FE000CB45D4D1029A80240A43802149000A4378
:101FF0001A61002ECFD1802103E02B689A6F002A4E
:10200000DCD15A585B6D002BF7D002235B42994616
:102010004846039B2B7105B03CBC90469946A246AE
:10202000AB46F0BD454601235B429946F0E70023ED
:102030009946EDE745460028F5D1E6E7F0B5454677
:102040004E46DE465746E0B5060087B003910021B4
:10205000019310AB01CB129D1C78139B0290984604
:1020600033680594D9665A600122DA66002800DCDC
:10207000ABE0421E00920122624052020020049214
:10208000002210279346914682464A460024002AA1
:1020900004D1039A1278541EA2419402009A00219E
:1020A0004A456DD04846019A125C22430A430024F7
:1020B0001A61002D40D04346B04613931E0004E041
:1020C00043461B685A6B174214D13000A84704439B
:1020D000E4B20028F4D01396139B464682469846F5
:1020E000002C58D101239C46029BE1444B4518D05B
:1020F0003368CAE71396139A4646904680229A5848
:102100009346002A23D1002C23D1009A4A4557D068
:1021100000239B469A4601239C46029BE1444B4583
:10212000E6D14846039B059A1A7007B03CBC90461E
:102130009946A246AB46F0BD5246002AD2D15A6B10
:102140001742FCD080229A589346002ADDD0012401
:102150005A6D002D2ED080239B009A464346B046F0
:1021600013931E0005E0434651461B685A6B0A4212
:1021700008D13000A8470443E4B20028F3D0AAE70E
:1021800004998FE71396139A464690461B6E0023D8
:102190009A46002CA6D05046002819D15B46002B49
:1021A00004D0DB0702D45B461B07BAD402235B4290
:1021B0009946B6E7802189005A6B0A42FCD0E5E7D0
:1021C000059A002AA4D10024C3E700239946A8E772
:1021D00001235B429946A4E7F8B5DE4657464E46D2
:1021E00045468346E0B505200C00FFF72DFB0600B1
:1021F000600821008019FFF71BFC430098468044CB
:10220000070005214046FFF713FC3B1A9A46204B76
:102210008146700080199C4234D81E49FFF708FCA3
:10222000451C5B461C680023E36622680433534068
:1022300006221A4080235B0123431A605346E36160
:102240004B462362434601204F2B03D95021404681
:10225000FFF7EEFBA0232200E0508023E06F7C32EA
:1022600045402D045B0113432D0C1D6001233900F3
:102270003000E366FFF7DCFB3CBC90469946A24683
:10228000AB46F8BD0449FFF7D3FB451CC9E7C04680
:102290003F420F008096980040787D01104A70B54B
:1022A000821A53425A41072352429A430D4B10322D
:1022B0001A600D4B0D4C1A601500A3689D432B1E30
:1022C000FAD166240268FF340571D5661460633C58
:1022D0008833FF3CD5639563D450FFF77DFF70BD15
:1022E0005003002000E0004000F0004000C000402B
:1022F000F0B5CE46474680B589B01F0010AB1B78BD
:102300000400994604AB98461600129A139B404667
:102310000D00FEF745FD434603934B4602900193A3
:102320002A0033002000211D0097FFF787FE09B027
:102330000CBC90469946F0BDF0B5CE46474680B5F8
:1023400089B01F0010AB1B780400994604AB984677
:102350001600129A139B40460D00FEF721FD4346DE
:1023600002934B460190009332003B00290020006D
:10237000FFF7DEFD09B00CBC90469946F0BDC046A3
:1023800010B5024800F004F810BDC0463006002029
:1023900030B5002589B004000922002101A800956C
:1023A000FFF778FC0922002105A80495FFF772FCCD
:1023B0004B236A466846137004A90D2200F040F8CA
:1023C0001521082220006944FFF76AFC09B030BDDE
:1023D00010B5830727D00378002B26D003000321F4
:1023E00002E01A78002A1CD001330B42F9D1196897
:1023F0000F4A104C8A188A4322420FD104331968BD
:102400000B4A8A188A43224208D104331968084AC1
:102410008A188A432242F1D000E001331A78002A58
:10242000FBD1181A10BD0300E1E70020FAE7C0460F
:10243000FFFEFEFE80808080F8B5C04600000000F0
:1024400001B40248844601BC604700BFF10100208E
:1024500001B40248844601BC604700BF510100201E
:1024600001B40248844601BC604700BFB5020020A9
:1024700001B40248844601BC604700BF0901002046
:1024800001B40248844601BC604700BFC10000207F
:10249000486172647761726520616C61726D20259C
:1024A0006420616C726561647920636C61696D653B
:1024B000640000000A2A2A2A2050414E4943202A5B
:1024C0002A2A0A000A0000004861726420617373BE
:1024D000657274006D697373696E6720646F7562ED
:1024E0006C652066756E6374696F6E000000000095
:1024F00052656C6561736500626F6F74325F77322D
:102500003571303830000000312E342E300000009C
:102510007069636F5F770000736572766F447269EC
:10252000766572004E6F76202038203230323200CD
:1025300006005250BBFF3CB610250010060052505A
:10254000E182887FF824001006005250D3F07542D3
:08255000F02400100D0A000048
:10255800B4020010A80200109C02001030250010E0
:0C256800900200103C25001048250010D7
:10257400D02330B500251B0600245D5706E0036810
:10258400BFF35F8F1C6081F3108820BF0268EFF3F4
:10259400108172B61368002BFCD0BFF35F8F0379F0
:1025A4007F2BECD905710368BFF35F8F00221A609B
:1025B40081F3108830BDC046030010B50068EFF306
:1025C400108472B60268002AFCD0BFF35F8F042225
:1025D4009A56002A0BDB00290FD000200A601B68E2
:1025E400BFF35F8F00221A6084F3108810BDD022DD
:1025F4001206126801201A71F1E70020EFE7C046C5
:102604000268EFF3108172B61368002BFCD0BFF39D
:102614005F8FFF2303710368BFF35F8F00221A608B
:1026240081F3108840BF7047084810B50378002B29
:102634000AD180230649074A5B051C68CC50043341
:102644009342FAD10123037010BDC0465006002006
:10265400AC0400100001001010B5024B0133984780
:1026640010BDC046AC040020054B1A6880239B00B3
:102674005340C02292001340024A13607047C04680
:102684000C8001400C900140034B1A68C0239B004E
:102694009343024A136070470C8001400C90014040
:1026A4001423F0B5D6464F4646469A4681461888C6
:1026B4000433C0B598460E001B8827491400984778
:1026C400534607001888434624491B8898475346B5
:1026D40005001888434622491B8898478046FFF71F
:1026E400A3FFB847A847FFF7BFFF002C1BD0C021AA
:1026F40022000827022049053D008B6A1D4018422C
:102704000BD0002C09D0131B0D2B1FD84B461B7864
:10271400013C0B6601239C46E1442300002D0CD1AF
:102724001343002BE8D1FFF7AFFFC047FFF794FF37
:102734001CBC90469946A246F0BD002AF1D00B6E0F
:10274400013A3370130001362343EAE7002DD3D056
:10275400002AD1D0F3E7C04649460000455800009E
:10276400464300007047C04610000000000000000F
:102774000000010000000000000000000000020052
:102784000000000000000000000003000000000042
:10279400000000000000FF000000000000B54868D1
:1027A40001318E460047704609380149884700BD0B
:1027B400250900101C0300200000000080030020F5
:1027C400D40500200000000000000000E405002003
:1027D40000000000000000001000000000000000E5
:1027E400503300004C3300005433000052330000D7
:1027F4004D5300004D4300005334000043340000A7
:10280400004004400000000000800440000000007C
:102814000000000000000000851C00107519001065
:10282400311B0010291C00103903001081230010F3
:04000005100001E9FD
:00000001FF
